{
  "contractName": "SupplyChain",
  "abi": [
    {
      "inputs": [],
      "stateMutability": "nonpayable",
      "type": "constructor"
    },
    {
      "inputs": [
        {
          "internalType": "uint256",
          "name": "",
          "type": "uint256"
        }
      ],
      "name": "DIS",
      "outputs": [
        {
          "internalType": "address",
          "name": "addr",
          "type": "address"
        },
        {
          "internalType": "uint256",
          "name": "id",
          "type": "uint256"
        },
        {
          "internalType": "string",
          "name": "name",
          "type": "string"
        },
        {
          "internalType": "string",
          "name": "place",
          "type": "string"
        }
      ],
      "stateMutability": "view",
      "type": "function"
    },
    {
      "inputs": [
        {
          "internalType": "uint256",
          "name": "",
          "type": "uint256"
        }
      ],
      "name": "MAN",
      "outputs": [
        {
          "internalType": "address",
          "name": "addr",
          "type": "address"
        },
        {
          "internalType": "uint256",
          "name": "id",
          "type": "uint256"
        },
        {
          "internalType": "string",
          "name": "name",
          "type": "string"
        },
        {
          "internalType": "string",
          "name": "place",
          "type": "string"
        }
      ],
      "stateMutability": "view",
      "type": "function"
    },
    {
      "inputs": [
        {
          "internalType": "uint256",
          "name": "",
          "type": "uint256"
        }
      ],
      "name": "MedicineStock",
      "outputs": [
        {
          "internalType": "uint256",
          "name": "id",
          "type": "uint256"
        },
        {
          "internalType": "string",
          "name": "name",
          "type": "string"
        },
        {
          "internalType": "string",
          "name": "description",
          "type": "string"
        },
        {
          "internalType": "uint256",
          "name": "RMSid",
          "type": "uint256"
        },
        {
          "internalType": "uint256",
          "name": "MANid",
          "type": "uint256"
        },
        {
          "internalType": "uint256",
          "name": "DISid",
          "type": "uint256"
        },
        {
          "internalType": "uint256",
          "name": "RETid",
          "type": "uint256"
        },
        {
          "internalType": "enum SupplyChain.STAGE",
          "name": "stage",
          "type": "uint8"
        }
      ],
      "stateMutability": "view",
      "type": "function"
    },
    {
      "inputs": [],
      "name": "Owner",
      "outputs": [
        {
          "internalType": "address",
          "name": "",
          "type": "address"
        }
      ],
      "stateMutability": "view",
      "type": "function"
    },
    {
      "inputs": [
        {
          "internalType": "uint256",
          "name": "",
          "type": "uint256"
        }
      ],
      "name": "RET",
      "outputs": [
        {
          "internalType": "address",
          "name": "addr",
          "type": "address"
        },
        {
          "internalType": "uint256",
          "name": "id",
          "type": "uint256"
        },
        {
          "internalType": "string",
          "name": "name",
          "type": "string"
        },
        {
          "internalType": "string",
          "name": "place",
          "type": "string"
        }
      ],
      "stateMutability": "view",
      "type": "function"
    },
    {
      "inputs": [
        {
          "internalType": "uint256",
          "name": "",
          "type": "uint256"
        }
      ],
      "name": "RMS",
      "outputs": [
        {
          "internalType": "address",
          "name": "addr",
          "type": "address"
        },
        {
          "internalType": "uint256",
          "name": "id",
          "type": "uint256"
        },
        {
          "internalType": "string",
          "name": "name",
          "type": "string"
        },
        {
          "internalType": "string",
          "name": "place",
          "type": "string"
        }
      ],
      "stateMutability": "view",
      "type": "function"
    },
    {
      "inputs": [],
      "name": "disCtr",
      "outputs": [
        {
          "internalType": "uint256",
          "name": "",
          "type": "uint256"
        }
      ],
      "stateMutability": "view",
      "type": "function"
    },
    {
      "inputs": [],
      "name": "manCtr",
      "outputs": [
        {
          "internalType": "uint256",
          "name": "",
          "type": "uint256"
        }
      ],
      "stateMutability": "view",
      "type": "function"
    },
    {
      "inputs": [],
      "name": "medicineCtr",
      "outputs": [
        {
          "internalType": "uint256",
          "name": "",
          "type": "uint256"
        }
      ],
      "stateMutability": "view",
      "type": "function"
    },
    {
      "inputs": [],
      "name": "retCtr",
      "outputs": [
        {
          "internalType": "uint256",
          "name": "",
          "type": "uint256"
        }
      ],
      "stateMutability": "view",
      "type": "function"
    },
    {
      "inputs": [],
      "name": "rmsCtr",
      "outputs": [
        {
          "internalType": "uint256",
          "name": "",
          "type": "uint256"
        }
      ],
      "stateMutability": "view",
      "type": "function"
    },
    {
      "inputs": [
        {
          "internalType": "uint256",
          "name": "_medicineID",
          "type": "uint256"
        }
      ],
      "name": "showStage",
      "outputs": [
        {
          "internalType": "string",
          "name": "",
          "type": "string"
        }
      ],
      "stateMutability": "view",
      "type": "function"
    },
    {
      "inputs": [
        {
          "internalType": "address",
          "name": "_address",
          "type": "address"
        },
        {
          "internalType": "string",
          "name": "_name",
          "type": "string"
        },
        {
          "internalType": "string",
          "name": "_place",
          "type": "string"
        }
      ],
      "name": "addRMS",
      "outputs": [],
      "stateMutability": "nonpayable",
      "type": "function"
    },
    {
      "inputs": [
        {
          "internalType": "address",
          "name": "_address",
          "type": "address"
        },
        {
          "internalType": "string",
          "name": "_name",
          "type": "string"
        },
        {
          "internalType": "string",
          "name": "_place",
          "type": "string"
        }
      ],
      "name": "addManufacturer",
      "outputs": [],
      "stateMutability": "nonpayable",
      "type": "function"
    },
    {
      "inputs": [
        {
          "internalType": "address",
          "name": "_address",
          "type": "address"
        },
        {
          "internalType": "string",
          "name": "_name",
          "type": "string"
        },
        {
          "internalType": "string",
          "name": "_place",
          "type": "string"
        }
      ],
      "name": "addDistributor",
      "outputs": [],
      "stateMutability": "nonpayable",
      "type": "function"
    },
    {
      "inputs": [
        {
          "internalType": "address",
          "name": "_address",
          "type": "address"
        },
        {
          "internalType": "string",
          "name": "_name",
          "type": "string"
        },
        {
          "internalType": "string",
          "name": "_place",
          "type": "string"
        }
      ],
      "name": "addRetailer",
      "outputs": [],
      "stateMutability": "nonpayable",
      "type": "function"
    },
    {
      "inputs": [
        {
          "internalType": "uint256",
          "name": "_medicineID",
          "type": "uint256"
        }
      ],
      "name": "RMSsupply",
      "outputs": [],
      "stateMutability": "nonpayable",
      "type": "function"
    },
    {
      "inputs": [
        {
          "internalType": "uint256",
          "name": "_medicineID",
          "type": "uint256"
        }
      ],
      "name": "Manufacturing",
      "outputs": [],
      "stateMutability": "nonpayable",
      "type": "function"
    },
    {
      "inputs": [
        {
          "internalType": "uint256",
          "name": "_medicineID",
          "type": "uint256"
        }
      ],
      "name": "Distribute",
      "outputs": [],
      "stateMutability": "nonpayable",
      "type": "function"
    },
    {
      "inputs": [
        {
          "internalType": "uint256",
          "name": "_medicineID",
          "type": "uint256"
        }
      ],
      "name": "Retail",
      "outputs": [],
      "stateMutability": "nonpayable",
      "type": "function"
    },
    {
      "inputs": [
        {
          "internalType": "uint256",
          "name": "_medicineID",
          "type": "uint256"
        }
      ],
      "name": "sold",
      "outputs": [],
      "stateMutability": "nonpayable",
      "type": "function"
    },
    {
      "inputs": [
        {
          "internalType": "string",
          "name": "_name",
          "type": "string"
        },
        {
          "internalType": "string",
          "name": "_description",
          "type": "string"
        }
      ],
      "name": "addMedicine",
      "outputs": [],
      "stateMutability": "nonpayable",
      "type": "function"
    }
  ],
  "bytecode": "0x60806040526000600155600060025560006003556000600455600060055534801561002957600080fd5b50600080546001600160a01b031916331790556115e38061004b6000396000f3fe608060405234801561001057600080fd5b50600436106101425760003560e01c806386c18275116100b8578063b4a99a4e1161007c578063b4a99a4e14610273578063cc40306914610288578063dd2863981461029b578063e101a2e0146102a3578063eb1a06b5146102c3578063eef5cb40146102ea57610142565b806386c182751461021f5780638f4183cc146102325780639c03facb14610245578063a48d335a14610258578063a95f29d91461026b57610142565b8063438e9c4d1161010a578063438e9c4d146101c35780634def474a146101cb57806359bf286f146101de5780636a992c9f146101f15780637e43d94d14610204578063857ddb041461020c57610142565b80632a4af440146101475780632b0187ac1461015c5780632b70b08d146101885780632bdb2e6b1461019b5780633d753a1c146101b0575b600080fd5b61015a6101553660046112fe565b6102fd565b005b61016f61016a3660046113dd565b6103be565b60405161017f9493929190611454565b60405180910390f35b61015a6101963660046112fe565b610501565b6101a36105a1565b60405161017f91906114b2565b61015a6101be3660046113dd565b6105a7565b6101a361064d565b61015a6101d93660046113dd565b610653565b61016f6101ec3660046113dd565b6106f2565b61015a6101ff3660046112fe565b610724565b6101a36107c1565b61015a61021a3660046112fe565b6107c7565b61015a61022d3660046113dd565b610864565b61015a61024036600461137c565b610900565b61015a6102533660046113dd565b610a7d565b61015a6102663660046113dd565b610b33565b6101a3610bd2565b61027b610bd8565b60405161017f9190611440565b61016f6102963660046113dd565b610be7565b6101a3610c19565b6102b66102b13660046113dd565b610c1f565b60405161017f9190611498565b6102d66102d13660046113dd565b610eb0565b60405161017f9897969594939291906114bb565b61016f6102f83660046113dd565b611005565b6000546001600160a01b0316331461031457600080fd5b6004805490600061032483611570565b9091555050604080516080810182526001600160a01b03858116825260045460208084018281528486018881526060860188905260009384526009835295909220845181546001600160a01b031916941693909317835590516001830155925180519293919261039a92600285019201906111e4565b50606082015180516103b69160038401916020909101906111e4565b505050505050565b6009602052600090815260409020805460018201546002830180546001600160a01b039093169391926103f090611535565b80601f016020809104026020016040519081016040528092919081815260200182805461041c90611535565b80156104695780601f1061043e57610100808354040283529160200191610469565b820191906000526020600020905b81548152906001019060200180831161044c57829003601f168201915b50505050509080600301805461047e90611535565b80601f01602080910402602001604051908101604052809291908181526020018280546104aa90611535565b80156104f75780601f106104cc576101008083540402835291602001916104f7565b820191906000526020600020905b8154815290600101906020018083116104da57829003601f168201915b5050505050905084565b6000546001600160a01b0316331461051857600080fd5b6002805490600061052883611570565b9091555050604080516080810182526001600160a01b0385811682526002805460208085018281528587018981526060870189905260009384526007835296909220855181546001600160a01b031916951694909417845590516001840155935180519394929361039a939285019291909101906111e4565b60045481565b6000811180156105b957506001548111155b6105c257600080fd5b60006105cd33611037565b9050600081116105dc57600080fd5b600360008381526006602052604090206007015460ff16600581111561061257634e487b7160e01b600052602160045260246000fd5b1461061c57600080fd5b600082815260066020819052604090912090810182905560070180546004919060ff19166001835b02179055505050565b60035481565b60008111801561066557506001548111155b61066e57600080fd5b6000610679336110a9565b90506000811161068857600080fd5b600260008381526006602052604090206007015460ff1660058111156106be57634e487b7160e01b600052602160045260246000fd5b146106c857600080fd5b60008281526006602052604090206005810182905560070180546003919060ff1916600183610644565b600a602052600090815260409020805460018201546002830180546001600160a01b039093169391926103f090611535565b6000546001600160a01b0316331461073b57600080fd5b6003805490600061074b83611570565b9091555050604080516080810182526001600160a01b03858116825260035460208084018281528486018881526060860188905260009384526008835295909220845181546001600160a01b031916941693909317835590516001830155925180519293919261039a92600285019201906111e4565b60055481565b6000546001600160a01b031633146107de57600080fd5b600580549060006107ee83611570565b9091555050604080516080810182526001600160a01b0385811682526005546020808401828152848601888152606086018890526000938452600a835295909220845181546001600160a01b031916941693909317835590516001830155925180519293919261039a92600285019201906111e4565b60008111801561087657506001548111155b61087f57600080fd5b600061088a33611112565b90506000811161089957600080fd5b60008281526006602052604081206007015460ff1660058111156108cd57634e487b7160e01b600052602160045260246000fd5b146108d757600080fd5b60008281526006602052604090206003810182905560070180546001919060ff19168280610644565b6000546001600160a01b0316331461091757600080fd5b600060025411801561092b57506000600354115b801561093957506000600454115b801561094757506000600554115b61095057600080fd5b6001805490600061096083611570565b9190505550604051806101000160405280600154815260200183815260200182815260200160008152602001600081526020016000815260200160008152602001600060058111156109c257634e487b7160e01b600052602160045260246000fd5b90526001805460009081526006602090815260409091208351815583820151805191936109f593908501929101906111e4565b5060408201518051610a119160028401916020909101906111e4565b50606082015181600301556080820151816004015560a0820151816005015560c0820151816006015560e08201518160070160006101000a81548160ff02191690836005811115610a7257634e487b7160e01b600052602160045260246000fd5b021790555050505050565b600081118015610a8f57506001548111155b610a9857600080fd5b6000610aa333611037565b905060008111610ab257600080fd5b600082815260066020819052604090912001548114610ad057600080fd5b600460008381526006602052604090206007015460ff166005811115610b0657634e487b7160e01b600052602160045260246000fd5b14610b1057600080fd5b600082815260066020526040902060070180546005919060ff1916600183610644565b600081118015610b4557506001548111155b610b4e57600080fd5b6000610b593361117b565b905060008111610b6857600080fd5b600160008381526006602052604090206007015460ff166005811115610b9e57634e487b7160e01b600052602160045260246000fd5b14610ba857600080fd5b60008281526006602052604090206004810182905560070180546002919060ff1916600183610644565b60015481565b6000546001600160a01b031681565b6008602052600090815260409020805460018201546002830180546001600160a01b039093169391926103f090611535565b60025481565b6060600060015411610c3057600080fd5b60008281526006602052604081206007015460ff166005811115610c6457634e487b7160e01b600052602160045260246000fd5b1415610c97575060408051808201909152601081526f1359591a58da5b994813dc99195c995960821b6020820152610eab565b600160008381526006602052604090206007015460ff166005811115610ccd57634e487b7160e01b600052602160045260246000fd5b1415610d0d575060408051808201909152601981527f526177204d6174657269616c20537570706c79205374616765000000000000006020820152610eab565b600260008381526006602052604090206007015460ff166005811115610d4357634e487b7160e01b600052602160045260246000fd5b1415610d7957506040805180820190915260138152724d616e75666163747572696e6720537461676560681b6020820152610eab565b600360008381526006602052604090206007015460ff166005811115610daf57634e487b7160e01b600052602160045260246000fd5b1415610de45750604080518082019091526012815271446973747269627574696f6e20537461676560701b6020820152610eab565b600460008381526006602052604090206007015460ff166005811115610e1a57634e487b7160e01b600052602160045260246000fd5b1415610e49575060408051808201909152600c81526b52657461696c20537461676560a01b6020820152610eab565b600560008381526006602052604090206007015460ff166005811115610e7f57634e487b7160e01b600052602160045260246000fd5b1415610eab575060408051808201909152600d81526c1359591a58da5b994814dbdb19609a1b60208201525b919050565b60066020526000908152604090208054600182018054919291610ed290611535565b80601f0160208091040260200160405190810160405280929190818152602001828054610efe90611535565b8015610f4b5780601f10610f2057610100808354040283529160200191610f4b565b820191906000526020600020905b815481529060010190602001808311610f2e57829003601f168201915b505050505090806002018054610f6090611535565b80601f0160208091040260200160405190810160405280929190818152602001828054610f8c90611535565b8015610fd95780601f10610fae57610100808354040283529160200191610fd9565b820191906000526020600020905b815481529060010190602001808311610fbc57829003601f168201915b505050600384015460048501546005860154600687015460079097015495969295919450925060ff1688565b6007602052600090815260409020805460018201546002830180546001600160a01b039093169391926103f090611535565b6000806005541161104757600080fd5b60015b60055481116110a0576000818152600a60205260409020546001600160a01b038481169116141561108e576000908152600a60205260409020600101549050610eab565b8061109881611570565b91505061104a565b50600092915050565b600080600454116110b957600080fd5b60015b60045481116110a0576000818152600960205260409020546001600160a01b0384811691161415611100576000908152600960205260409020600101549050610eab565b8061110a81611570565b9150506110bc565b6000806002541161112257600080fd5b60015b60025481116110a0576000818152600760205260409020546001600160a01b0384811691161415611169576000908152600760205260409020600101549050610eab565b8061117381611570565b915050611125565b6000806003541161118b57600080fd5b60015b60035481116110a0576000818152600860205260409020546001600160a01b03848116911614156111d2576000908152600860205260409020600101549050610eab565b806111dc81611570565b91505061118e565b8280546111f090611535565b90600052602060002090601f0160209004810192826112125760008555611258565b82601f1061122b57805160ff1916838001178555611258565b82800160010185558215611258579182015b8281111561125857825182559160200191906001019061123d565b50611264929150611268565b5090565b5b808211156112645760008155600101611269565b600082601f83011261128d578081fd5b813567ffffffffffffffff808211156112a8576112a8611597565b604051601f8301601f1916810160200182811182821017156112cc576112cc611597565b6040528281528483016020018610156112e3578384fd5b82602086016020830137918201602001929092529392505050565b600080600060608486031215611312578283fd5b83356001600160a01b0381168114611328578384fd5b9250602084013567ffffffffffffffff80821115611344578384fd5b6113508783880161127d565b93506040860135915080821115611365578283fd5b506113728682870161127d565b9150509250925092565b6000806040838503121561138e578182fd5b823567ffffffffffffffff808211156113a5578384fd5b6113b18683870161127d565b935060208501359150808211156113c6578283fd5b506113d38582860161127d565b9150509250929050565b6000602082840312156113ee578081fd5b5035919050565b60008151808452815b8181101561141a576020818501810151868301820152016113fe565b8181111561142b5782602083870101525b50601f01601f19169290920160200192915050565b6001600160a01b0391909116815260200190565b600060018060a01b03861682528460208301526080604083015261147b60808301856113f5565b828103606084015261148d81856113f5565b979650505050505050565b6000602082526114ab60208301846113f5565b9392505050565b90815260200190565b60006101008a83528060208401526114d58184018b6113f5565b905082810360408401526114e9818a6113f5565b9150508660608301528560808301528460a08301528360c08301526006831061152257634e487b7160e01b600052602160045260246000fd5b8260e08301529998505050505050505050565b60028104600182168061154957607f821691505b6020821081141561156a57634e487b7160e01b600052602260045260246000fd5b50919050565b600060001982141561159057634e487b7160e01b81526011600452602481fd5b5060010190565b634e487b7160e01b600052604160045260246000fdfea2646970667358221220e956c11f64d7be967a8b0644438e7d1a08d0d9b1c10c71f47e3e09801662374664736f6c63430008000033",
  "immutableReferences": {},
  "source": "// SPDX-License-Identifier: MIT\npragma solidity >=0.4.22 <0.9.0;\n\ncontract SupplyChain {\n    //Smart Contract owner will be the person who deploys the contract only he can authorize various roles like retailer, Manufacturer,etc\n    address public Owner;\n\n    //note this constructor will be called when smart contract will be deployed on blockchain\n    constructor() public {\n        Owner = msg.sender;\n    }\n\n    //Roles (flow of pharma supply chain)\n    // RawMaterialSupplier; //This is where Manufacturer will get raw materials to make medicines\n    // Manufacturer;  //Various WHO guidelines should be followed by this person\n    // Distributor; //This guy distributes the medicines to retailers\n    // Retailer; //Normal customer buys from the retailer\n\n    //modifier to make sure only the owner is using the function\n    modifier onlyByOwner() {\n        require(msg.sender == Owner);\n        _;\n    }\n\n    //stages of a medicine in pharma supply chain\n    enum STAGE {\n        Init,\n        RawMaterialSupply,\n        Manufacture,\n        Distribution,\n        Retail,\n        sold\n    }\n    //using this we are going to track every single medicine the owner orders\n\n    //Medicine count\n    uint256 public medicineCtr = 0;\n    //Raw material supplier count\n    uint256 public rmsCtr = 0;\n    //Manufacturer count\n    uint256 public manCtr = 0;\n    //distributor count\n    uint256 public disCtr = 0;\n    //retailer count\n    uint256 public retCtr = 0;\n\n    //To store information about the medicine\n    struct medicine {\n        uint256 id; //unique medicine id\n        string name; //name of the medicine\n        string description; //about medicine\n        uint256 RMSid; //id of the Raw Material supplier for this particular medicine\n        uint256 MANid; //id of the Manufacturer for this particular medicine\n        uint256 DISid; //id of the distributor for this particular medicine\n        uint256 RETid; //id of the retailer for this particular medicine\n        STAGE stage; //current medicine stage\n    }\n\n    //To store all the medicines on the blockchain\n    mapping(uint256 => medicine) public MedicineStock;\n\n    //To show status to client applications\n    function showStage(uint256 _medicineID)\n        public\n        view\n        returns (string memory)\n    {\n        require(medicineCtr > 0);\n        if (MedicineStock[_medicineID].stage == STAGE.Init)\n            return \"Medicine Ordered\";\n        else if (MedicineStock[_medicineID].stage == STAGE.RawMaterialSupply)\n            return \"Raw Material Supply Stage\";\n        else if (MedicineStock[_medicineID].stage == STAGE.Manufacture)\n            return \"Manufacturing Stage\";\n        else if (MedicineStock[_medicineID].stage == STAGE.Distribution)\n            return \"Distribution Stage\";\n        else if (MedicineStock[_medicineID].stage == STAGE.Retail)\n            return \"Retail Stage\";\n        else if (MedicineStock[_medicineID].stage == STAGE.sold)\n            return \"Medicine Sold\";\n    }\n\n    //To store information about raw material supplier\n    struct rawMaterialSupplier {\n        address addr;\n        uint256 id; //supplier id\n        string name; //Name of the raw material supplier\n        string place; //Place the raw material supplier is based in\n    }\n\n    //To store all the raw material suppliers on the blockchain\n    mapping(uint256 => rawMaterialSupplier) public RMS;\n\n    //To store information about manufacturer\n    struct manufacturer {\n        address addr;\n        uint256 id; //manufacturer id\n        string name; //Name of the manufacturer\n        string place; //Place the manufacturer is based in\n    }\n\n    //To store all the manufacturers on the blockchain\n    mapping(uint256 => manufacturer) public MAN;\n\n    //To store information about distributor\n    struct distributor {\n        address addr;\n        uint256 id; //distributor id\n        string name; //Name of the distributor\n        string place; //Place the distributor is based in\n    }\n\n    //To store all the distributors on the blockchain\n    mapping(uint256 => distributor) public DIS;\n\n    //To store information about retailer\n    struct retailer {\n        address addr;\n        uint256 id; //retailer id\n        string name; //Name of the retailer\n        string place; //Place the retailer is based in\n    }\n\n    //To store all the retailers on the blockchain\n    mapping(uint256 => retailer) public RET;\n\n    //To add raw material suppliers. Only contract owner can add a new raw material supplier\n    function addRMS(\n        address _address,\n        string memory _name,\n        string memory _place\n    ) public onlyByOwner() {\n        rmsCtr++;\n        RMS[rmsCtr] = rawMaterialSupplier(_address, rmsCtr, _name, _place);\n    }\n\n    //To add manufacturer. Only contract owner can add a new manufacturer\n    function addManufacturer(\n        address _address,\n        string memory _name,\n        string memory _place\n    ) public onlyByOwner() {\n        manCtr++;\n        MAN[manCtr] = manufacturer(_address, manCtr, _name, _place);\n    }\n\n    //To add distributor. Only contract owner can add a new distributor\n    function addDistributor(\n        address _address,\n        string memory _name,\n        string memory _place\n    ) public onlyByOwner() {\n        disCtr++;\n        DIS[disCtr] = distributor(_address, disCtr, _name, _place);\n    }\n\n    //To add retailer. Only contract owner can add a new retailer\n    function addRetailer(\n        address _address,\n        string memory _name,\n        string memory _place\n    ) public onlyByOwner() {\n        retCtr++;\n        RET[retCtr] = retailer(_address, retCtr, _name, _place);\n    }\n\n    //To supply raw materials from RMS supplier to the manufacturer\n    function RMSsupply(uint256 _medicineID) public {\n        require(_medicineID > 0 && _medicineID <= medicineCtr);\n        uint256 _id = findRMS(msg.sender);\n        require(_id > 0);\n        require(MedicineStock[_medicineID].stage == STAGE.Init);\n        MedicineStock[_medicineID].RMSid = _id;\n        MedicineStock[_medicineID].stage = STAGE.RawMaterialSupply;\n    }\n\n    //To check if RMS is available in the blockchain\n    function findRMS(address _address) private view returns (uint256) {\n        require(rmsCtr > 0);\n        for (uint256 i = 1; i <= rmsCtr; i++) {\n            if (RMS[i].addr == _address) return RMS[i].id;\n        }\n        return 0;\n    }\n\n    //To manufacture medicine\n    function Manufacturing(uint256 _medicineID) public {\n        require(_medicineID > 0 && _medicineID <= medicineCtr);\n        uint256 _id = findMAN(msg.sender);\n        require(_id > 0);\n        require(MedicineStock[_medicineID].stage == STAGE.RawMaterialSupply);\n        MedicineStock[_medicineID].MANid = _id;\n        MedicineStock[_medicineID].stage = STAGE.Manufacture;\n    }\n\n    //To check if Manufacturer is available in the blockchain\n    function findMAN(address _address) private view returns (uint256) {\n        require(manCtr > 0);\n        for (uint256 i = 1; i <= manCtr; i++) {\n            if (MAN[i].addr == _address) return MAN[i].id;\n        }\n        return 0;\n    }\n\n    //To supply medicines from Manufacturer to distributor\n    function Distribute(uint256 _medicineID) public {\n        require(_medicineID > 0 && _medicineID <= medicineCtr);\n        uint256 _id = findDIS(msg.sender);\n        require(_id > 0);\n        require(MedicineStock[_medicineID].stage == STAGE.Manufacture);\n        MedicineStock[_medicineID].DISid = _id;\n        MedicineStock[_medicineID].stage = STAGE.Distribution;\n    }\n\n    //To check if distributor is available in the blockchain\n    function findDIS(address _address) private view returns (uint256) {\n        require(disCtr > 0);\n        for (uint256 i = 1; i <= disCtr; i++) {\n            if (DIS[i].addr == _address) return DIS[i].id;\n        }\n        return 0;\n    }\n\n    //To supply medicines from distributor to retailer\n    function Retail(uint256 _medicineID) public {\n        require(_medicineID > 0 && _medicineID <= medicineCtr);\n        uint256 _id = findRET(msg.sender);\n        require(_id > 0);\n        require(MedicineStock[_medicineID].stage == STAGE.Distribution);\n        MedicineStock[_medicineID].RETid = _id;\n        MedicineStock[_medicineID].stage = STAGE.Retail;\n    }\n\n    //To check if retailer is available in the blockchain\n    function findRET(address _address) private view returns (uint256) {\n        require(retCtr > 0);\n        for (uint256 i = 1; i <= retCtr; i++) {\n            if (RET[i].addr == _address) return RET[i].id;\n        }\n        return 0;\n    }\n\n    //To sell medicines from retailer to consumer\n    function sold(uint256 _medicineID) public {\n        require(_medicineID > 0 && _medicineID <= medicineCtr);\n        uint256 _id = findRET(msg.sender);\n        require(_id > 0);\n        require(_id == MedicineStock[_medicineID].RETid); //Only correct retailer can mark medicine as sold\n        require(MedicineStock[_medicineID].stage == STAGE.Retail);\n        MedicineStock[_medicineID].stage = STAGE.sold;\n    }\n\n    // To add new medicines to the stock\n    function addMedicine(string memory _name, string memory _description)\n        public\n        onlyByOwner()\n    {\n        require((rmsCtr > 0) && (manCtr > 0) && (disCtr > 0) && (retCtr > 0));\n        medicineCtr++;\n        MedicineStock[medicineCtr] = medicine(\n            medicineCtr,\n            _name,\n            _description,\n            0,\n            0,\n            0,\n            0,\n            STAGE.Init\n        );\n    }\n}\n",
  "sourcePath": "D:\\Academic\\Supply-Chain-Blockchain-master\\Supply-Chain-Blockchain-master\\contracts\\SupplyChain.sol",
  "compiler": {
    "name": "solc",
    "version": "0.8.0+commit.c7dfd78e.Emscripten.clang"
  },
  "schemaVersion": "3.4.16",
  "updatedAt": "2024-12-02T08:16:12.628Z",
  "devdoc": {
    "kind": "dev",
    "methods": {},
    "version": 1
  },
  "userdoc": {
    "kind": "user",
    "methods": {},
    "version": 1
  }
}